:100000000C9470020C948D020C948D020C948D0251
:100010000C948D020C948D020C948D020C948D0224
:100020000C948D020C948D020C94EF130C943113EC
:100030000C94091A0C948D020C948D020C948D0270
:100040000C948D020C948D020C948D020C948D02F4
:100050000C948D020C94C8190C948D020C948D0292
:100060000C948D020C948D020C948D020C948D02D4
:100070000C948D020C948D020C948D020C948D02C4
:100080000C948D020C948D020C948D020C948D02B4
:100090000C948D020C948D020C948D020C948D02A4
:1000A0000C948D020C948D020C948D0270037503D8
:1000B0007F03730378037D037B03A904AC04AF04BF
:1000C000B204B504B804BB0481078107B407B407C0
:1000D0001F083D08470947094808BC08CD08CD0856
:1000E00044116B1119136B111913B711DA1119138C
:1000F000CF12DF129B18AC187618151905191319B1
:100100001319111913192E004C002A00E1003500B3
:1001100000001E00140004001D6134004D001F008B
:100120001A0016001B00AE5D2A0020000800070020
:10013000060050002C0021001500090019004F0096
:100140004A00220017000A00050000006564500004
:100150000100000000070000E3004F000100000064
:1001600000070000E20023001C000B00110000004B
:100170002961240018000D00100052004B002500DA
:100180000C000E00360051002800260012000F005F
:1001900037002F002B002700130033423871300046
:1001A0004E002D0031003467E500010000002900F9
:1001B000010001000100010000003A001E022002BF
:1001C00022022E00B75D3B001F0221022302010024
:1001D00001003C002F0226022F000100CB5C3D00F5
:1001E0003002270230000100B65D3E0031023500CA
:1001F00035020000C45C01000100000001000000A5
:10020000010001000100000001000000C35C3F008C
:10021000520051002402000001004000240021008F
:100220001E000100B45D4100250022001F003700C0
:10023000C65C42002600230020002700C75C430064
:1002400025022E0231002E0001004400450001006D
:100250000100010000000100010001000100010097
:100260000000010001000100010001000100010087
:100270000100EF000100010001000100ED00EE00AF
:100280000100F100010001000100F0000100F20096
:100290000100010001000100010000000100010057
:1002A0000100000001000000010001000100000049
:1002B0000100000001000100010001000100000038
:1002C00001000100010001000100A900010001007E
:1002D00001000100AC00AA00B6000100010001000D
:1002E000AB00A800010001000100010001000100B5
:1002F0000100005C0100AE000100010000000501EA
:100300000980A101850319012AB700150126B7004C
:10031000950175108100C0050C0901A10185041922
:10032000012AA002150126A002950175108100C0C6
:1003300005010906A1018506050719E029E7150051
:1003400025019508750181020507190029EF15009F
:10035000250195F07501810205081901290595050A
:1003600075019102950175039101C005010902A172
:10037000010901A1000509190129081500250195A8
:1003800008750181020501093009311581257F9524
:10039000027508810609381581257F950175088148
:1003A00006050C0A38021581257F9501750881061E
:1003B000C0C00660FF0961A1010962150026FF00A7
:1003C0009520750881020963150026FF00952075A8
:1003D000089102C005010906A101050719E029E7F6
:1003E00015002501950875018102950175088101A7
:1003F0000507190029FF150026FF009506750881DD
:1004000000050819012905950575019102950175E9
:10041000039101C009027400040100A0FA0904005C
:100420000001030101000921110100012240000720
:10043000058103080001090401000203000000090E
:10044000211101000122220007058303200001077A
:100450000504032000010904020001030102000950
:10046000211101000122470007058203080001094C
:100470000403000103000000092111010001226DA5
:10048000000705850320000112010002000000089A
:100490009732744901000102000116034500720001
:1004A00067006F0044006F007800200045005A008C
:1004B000000028035A00530041002000540065004A
:1004C000630068006E006F006C006F0067007900C9
:1004D00020004C0061006200730000000403090466
:1004E00011241FBECFEFDAE0DEBFCDBF11E0A0E0E8
:1004F000B1E0E2E5F3E402C005900D92AA36B1073F
:10050000D9F722E0AAE6B1E001C01D92AB3AB207EA
:10051000E1F70E944F150C94A7210C940000109253
:10052000F3010E942E1D2FEF84E39CE021508040B8
:100530009040E1F700C000009AE088E10FB6F8941F
:10054000A895809360000FBE90936000FFCFA7E155
:10055000B0E0EDEAF2E00C94201F4B8B5C8B6D8BCE
:100560007E8B8F8B61111092740286E09E01235F57
:100570003F4FD901E82F1D92EA95E9F795E0FE017A
:100580007396D90101900D929A95E1F79C894E8955
:100590005F897B897D879E876F87598B488BF9019F
:1005A000DE01179601900D928A95E1F7CE0107962C
:1005B0000E94F70C81113EC086E0FE013796DE01F5
:1005C000119601900D928A95E1F7FF81E8856A8581
:1005D0007B856115710531F0EF3F31F481E0FF3F1C
:1005E00019F403C081E001C080E080FD23C02091A8
:1005F000940130E0C9010196877099274091C501A7
:1006000050E08417950779F1F983EA837D836C8341
:1006100096E0929FD001939FB00D1124AB56BE4F30
:10062000FE01319601900D929A95E1F78093940125
:100630000E94840C16E08091C50190919401891765
:1006400009F1189FC00111248B569E4F0E94F70C90
:100650008823C1F08091C50190E0019687709927A9
:100660008093C501E8CF1092F3010E942E1D1092D5
:1006700094011092C501EEE8F1E086E0DF011D92E1
:100680008A95E9F76796E3E00C943C1F982F9295C2
:100690009F7019F0892F24E001C020E0982F9695D3
:1006A000969511F02E5F892F982F969509F02F5F60
:1006B000822F0895CF93C82F0E94460356985E98C4
:1006C00025982D9826982E9827982F9890E0FC0131
:1006D0003197E730F105A8F4EA5AFF4F0C947320E4
:1006E000259A2D9A0EC0259A2D9A269A2E9A09C0DF
:1006F000259A2D9A04C0259A2D9A269A2E9A279AE1
:100700002F9A8C2FCF91089580E290E0909318015A
:100710008093170180916C0181110EC00E942D1EE3
:1007200081E080936C012FEF83ED90E321508040B6
:100730009040E1F700C0000060E570E080E40E94B6
:10074000331E9093180180931701892B09F04EC036
:1007500060E570E080E00E94A61E909318018093EF
:100760001701892B09F042C060E570E080E00E942B
:10077000A61E9093180180931701892BB9F560E5A7
:1007800070E08FE30E94A61E9093180180931701DA
:10079000892B61F50E94F91E60E570E080E40E94FB
:1007A000331E9093180180931701892BF9F460E5AB
:1007B00070E08CE00E94A61E9093180180931701B0
:1007C000892BA1F460E570E080E00E94A61E909362
:1007D000180180931701892B49F460E570E08FE3DD
:1007E0000E94A61E90931801809317010E94F91E83
:1007F000809117010895CF93DF9356985E982598BE
:100800002D9826982E9827982F98C8E8D0E08FEF3B
:1008100090E099838883AAE8B0E011969C938E9328
:10082000ECE8F0E091838083259A2D9A2FEF80E702
:1008300092E0215080409040E1F700C00000269AED
:100840002E9A2FEF80E792E0215080409040E1F710
:1008500000C00000279A2F9A2FEF80E792E02150E6
:1008600080409040E1F700C0000025982D982FEFC0
:1008700080E792E0215080409040E1F700C0000006
:1008800026982E982FEF80E792E0215080409040EC
:10089000E1F700C0000027982F9880912702877009
:1008A0002FEF829FC0011124959587959595879587
:1008B00099279983888311969C938E939183808343
:1008C00056985E9825982D9826982E9827982F98B8
:1008D000DF91CF910895CF93E82F873080F58091F5
:1008E000170190911801892B09F047C0CE2F60E5C0
:1008F00070E080E40E94331E9093180180931701EA
:10090000892BD1F460E570E082E10E94A61E9093ED
:10091000180180931701892B79F481E090E001C0E0
:10092000880FCA95EAF760E570E080950E94A61EE0
:1009300090931801809317010E94F91E1EC090E049
:10094000FC013797E730F105C0F4E35AFF4F0C94F0
:100950007320209A289811C0219A29980EC0229AB3
:100960002A980BC0239A2B9808C0529A5A9805C00F
:10097000539A5B9802C03E9A4698CF91089520986A
:1009800028982198299822982A9823982B98529849
:100990005A9853985B983E9846980895CF9387301D
:1009A00040F58091170190911801892B59F560E568
:1009B00070E081E40E94331E909318018093170128
:1009C000892B11F0C0E011C080E590E00E94D51E97
:1009D00097FF05C09093180180931701F3CFC82F9C
:1009E000C09510921801109217010E94F91E8C2FC9
:1009F0000AC09FB18FB1807F869586959370892BB1
:100A0000809501C080E0CF9108958098889A819860
:100A1000899A84988C9A85988D9A86988E9A8798C8
:100A20008F9A0895A5E2B0E0E8E1F5E00C94181F74
:100A3000FC018081918123813481232B31F09F3F00
:100A400031F491E08F3F19F403C091E001C090E0D0
:100A500090FD4BC47F0185E0DE01919601900D92DF
:100A60008A95E1F7D70112962C9189A19AA12223A8
:100A700049F00E940A1C182F682F89A19AA10E9490
:100A80007A1C03C00E94461C182F69A17AA1812FED
:100A90000E94BE098C0180912102882309F44FC075
:100AA000F70182818111C9C1E0916D01E330A0F4A9
:100AB00081E08E0F80936D01F0E0EE0FFF1FE45A8E
:100AC000FD4FD7018D919C919183808382E0898332
:100AD000CE0101960E942315BFEFE3EDF0E3B15084
:100AE000E040F040E1F700C0000080916D018330EC
:100AF00009F0A3C110926D01E2E6F2E0ACE5B2E0CC
:100B000088E692E0318111962C911197321330C012
:100B100030812C9132132CC0329612968E179F077B
:100B200089F784E0898381E0809322028EEF8A83B3
:100B300010922102CE0101960E9423157EC1809160
:100B400022028823D1F0D70112968C91811102C024
:100B500087E001C086E08983F70180818A838181F3
:100B60008B838EEF8C83CE0101960E94231505C0E6
:100B700083E0898310922202D9CF033BBDE51B0796
:100B8000E9F5D70112968C91882309F458C0909109
:100B9000270281E0890F8770987F853020F4892BA8
:100BA0008093270202C090932702809127028770CA
:100BB000BFEF8B9FC00111249595879595958795DB
:100BC0009927909389008093880090938B0080935D
:100BD0008A0090938D0080938C0040912702509161
:100BE00028026091290270912A028FE090E00E9411
:100BF000EA1F809139020E945A0321C00E3AEDE5A6
:100C00001E07E9F4D70112968C91882309F415C1C7
:100C100080917502882319F00E94931A0EC11092D8
:100C2000F3010E94E90B0E94FD1988579C4E909396
:100C30005A028093590281E080937502FEC0809130
:100C40007502882309F488C0D090F301C090E701B1
:100C50000E94FD1988579C4E90935A028093590226
:100C6000F7018281882309F477C08C2D8D298D7935
:100C700009F06DC00115F5E51F07B0F4011523E576
:100C8000120708F069C0011580E5180740F4011546
:100C900090E41907A8F5063E1105C9F55DC00115D8
:100CA000A2E51A07A0F558C00115B9E51B0750F4D5
:100CB0000115E8E51E0708F04FC00431F5E51F07F0
:100CC00031F54AC0C80190568115904200F5D70110
:100CD00015968C91807FC1F4812F8F71823169F0DC
:100CE00028F48230A1F581EE90E012C08431A1F1A8
:100CF000863169F586EE92E10BC085EE90E008C082
:100D0000F7018581807F69F1C801992701C0C80179
:100D1000109274028832910530F48E319105D0F42E
:100D20000497A8F00EC08D32910559F018F48A97F7
:100D300089F00DC08C34910569F08D32924051F0EC
:100D400006C082E0809374020E94F60B03C00E94EA
:100D5000931A02C00E94F60BF7018281882309F4DE
:100D60007EC00C352DE5120709F461C058F4011559
:100D70009CE5190799F00F3D1C4509F070C00E94D1
:100D8000730B4BC00E35BDE51B0709F448C008F4D2
:100D900050C0093A1D4509F440C061C01092F301EA
:100DA0000E942E1D2FEF84E39CE021508040904054
:100DB000E1F700C00000F89481E08093E00080E259
:100DC0008093D8001092C900AFE1BEE41197F1F70B
:100DD00000C000001DBA109268001CBC10BE1FBAF3
:100DE00010927A0010926E0010926F0010927100B3
:100DF000109272001092C9001092BC0014B817B87B
:100E00001AB81DB810BA1092BC0015B818B81BB8A3
:100E10001EB811BA0C94003F10C00E948F0280913E
:100E2000820282FB882780F991E0892703C081E054
:100E300001C080E00E94680C12C08091C6018770DA
:100E400009F453C2F7018281882309F44EC28091CC
:100E5000820282FF4AC282E00E944B0C46C2D70146
:100E600012968C9112970D911C91882349F0C8011C
:100E70000E940A1CD82E682FC8010E947A1C04C048
:100E8000C8010E94461CD82EB8018D2D0E94BE09B3
:100E90000E94D709B82E192F982ED70112960C91BF
:100EA00012971596AC90A2949FE0A9228091C6015A
:100EB0008770B9F00023A9F0812F807F803421F062
:100EC00080E28B0D883068F08091820282FF09C039
:100ED00082E00E944B0C8091C6018770DD24D39480
:100EE0008111D12CC12EC2948FE0C8228C2D90E0AC
:100EF0008C30910508F0CBC1FC01EC59FF4F0C94EC
:100F00007320812F807F1F70882311F01295107F2E
:100F10000023B9F0112309F4A8C180E28B0D8830B9
:100F200010F0911006C08091F301182B1093F3017B
:100F300005C080917402182B109374020E94F60B66
:100F400094C18B2D0E94531D112309F4A0C180E28E
:100F50008B0D883080F1992071F110958091740289
:100F60001823109374022AC0812F807F1F70803253
:100F700011F01295107F8B2D992021F0B1E09B1676
:100F8000D9F147C08091820282FD1BC0002369F025
:100F9000112339F08091F301182B1093F3010E9473
:100FA000F60B80E00E94881D72C180E00E94531DF4
:100FB000112309F46CC1812F0E94EF0B0E94F60BE4
:100FC00066C1002381F08091E701AA2051F0E1E0A1
:100FD000AE1207C0182B181709F459C11093E70176
:100FE00056C1812B10C0AA2021F0F1E0AF1609F400
:100FF0004EC10E94E90B1FC0002341F021E02A15D9
:1010000008F445C1812F0E94491D41C1A1103FC173
:1010100012C0002319F0AA20A9F327C1AA2059F071
:10102000893309F031C18FEF97EEA3E081509040F2
:10103000A040E1F727C1812F0E94421D28C1812FC6
:1010400086958695837019F0813061F020C1002368
:1010500021F08B2D912F937002C080E090E00E94D0
:10106000701A1BC1002321F08B2D912F937002C0A9
:1010700080E090E00E945A1A10C18B2D002319F0D5
:101080000E94931B02C00E94D91A0E94B21A05C185
:10109000812F8370A9F50111FEC04B2D4295469515
:1010A0004770440F440F8B2D8F7090E09C01042EED
:1010B00001C0220F0A94EAF7B4FE08C08FE090E066
:1010C00001C0880F4A95EAF7809501C080E0169527
:1010D00016951370123069F088F49091E801113080
:1010E00019F0822B892302C0922B892B0E94F21CBB
:1010F000D2C0822B9091E8018927F8CF822BF6CFBE
:10110000002319F0812F817001C08695882309F48E
:10111000C2C04B2D429546954770440F440F8B2D0E
:101120008F7090E09C01042E01C0220F0A94EAF710
:10113000B4FE08C08FE090E001C0880F4A95EAF73E
:10114000809501C080E0169516951370123059F005
:1011500078F490913902113019F0822B892309C05B
:10116000922B892B06C0822B90913902892701C0CE
:10117000822B0E94AF1C8FC01F70002339F0812F7B
:101180000E94E61C8B2D0E94491D85C08B2D0E945C
:10119000421D812F0E94D91C7EC08B2DB2EF9B1661
:1011A00069F1B91538F0E0EF9E1659F0F1EF9F168E
:1011B00001F157C023EF921641F194EF9916A9F06F
:1011C00050C0002369F0A11062C01F7181E090E05F
:1011D00001C0880F1A95EAF79091390289271FC03C
:1011E000A1E0AA1508F453C0F0CF8091820282FDDD
:1011F00019C0002329F0812F8F7126C00023D9F355
:10120000812F8F710E94D91C42C0002339F01F71B9
:1012100081E001C0880F1A95EAF701C080E00E94C2
:10122000AF1C35C0002399F01F71812F0E94E61C6E
:101230008091820282FF07C0B8E01B9FC001112489
:1012400083608093C601812F0E94E61C20C081E04C
:101250000E944B0CE1E0EA15D0F482E00E944B0CB6
:1012600016C0002321F0AA2031F28B2D9BCEAA209C
:1012700039F2893349F4FFEF27EE83E0F150204043
:101280008040E1F700C000008B2D0E94531D88EFC5
:101290008C0D843010F40E94861ADD20B1F080910C
:1012A000C60180FD12C0D70112961C9285958595C6
:1012B00085950E94E61CC7010E9412058091C60117
:1012C0008595859585950E94D91C85E0F701DE01FD
:1012D000119601900D928A95E1F709811A81C80152
:1012E0000E94461CB8010E94BE09A596EBE00C9432
:1012F000341F80E008959091810292FF0DC0282F45
:101300002871283019F4877F846006C0282F247143
:10131000243011F48B7F886093FF0DC0282F287133
:10132000283119F4877E846106C0282F2471243166
:1013300011F48B7E88612091820220FF0DC0382F2E
:101340003871383019F4877F816006C0382F3171C9
:10135000313011F48E7F886021FF0DC0282F287155
:10136000283119F4877E816106C0282F217121312F
:1013700011F48E7E886194FD877E08957E30A0F4FE
:10138000663090F494E5899FF001112486E0789FFF
:10139000E00DF11D1124E60FF11DEE0FFF1FEA5FB6
:1013A000FE4F85919491089580E090E00895CF9349
:1013B000DF938238910569F1B0F48133910509F426
:1013C00077C048F48932910509F469C08A329105E1
:1013D00009F473C092C08533910509F45BC0893369
:1013E0009105B9F08AC0833E910591F138F4803EB1
:1013F0009105D1F0823E910531F17FC0863E910585
:10140000D9F1873E9105E9F1843E910509F075C057
:1014100028C02091810220FD5BC021FD59C0209190
:10142000820223FD61C069C08091810280FD4AC0B3
:101430008091820280FF4CC08091810284FD4EC168
:1014400083EE90E04DC18091810282FF3EC0F4CFD7
:101450008091810282FD39C08091820280FD38C076
:10146000EBCF8091820281FF39C08091810284FD9F
:1014700035C187EE90E034C18091810283FF2BC09B
:10148000F4CF8091810283FD26C08091820281FD8C
:1014900025C0EBCF8091810285FD26C022C08091BE
:1014A000810285FD1EC08091820283FF1DC00AC09B
:1014B0008091810286FD1BC01DC08091810286FD46
:1014C00019C015C089E390E00BC182EE90E008C11D
:1014D00080EE90E005C186EE90E002C184EE90E0DF
:1014E000FFC085E390E0FCC089E290E0F9C08AE2A9
:1014F00090E0F6C081E390E0F3C0811531E59307F9
:1015000008F061C0811520E59207B0F09C012370BE
:10151000332741E050E002C0440F551F2A95E2F7FF
:10152000282F2695269580E2289F90011124CA0134
:10153000822B932B9D68D4C0883E910568F5803E30
:10154000910508F0CDC0883A9105B8F4853A910527
:1015500048F0855AE82FF0E0E75EFE4F808190E08A
:101560009064BEC08130910509F4B5C008F4B6C0DE
:101570008430910508F4B2C0B3C08F3B910508F0E8
:10158000ADC0885AE82FF0E0EE0FFF1FE45EFE4F7B
:10159000808191819464A4C0811530E2930758F44E
:1015A000811521E0920708F09BC08D3E910508F45B
:1015B00095C0906595C0811530E4930708F48EC0FE
:1015C0009F70906A8DC0811525E5920708F042C092
:1015D000811534E5930728F0982F8827846F906A47
:1015E0007FC0811523E59207B0F09C01237033275B
:1015F00041E050E002C0440F551F2A95E2F7282F22
:101600002695269580E2289F90011124CA01822BFD
:10161000932B9A6865C0811532E5930728F4982FBB
:101620008827816F906A5CC09C012370332741E05A
:1016300050E002C0440F551F2A95E2F7282F269547
:10164000269580E2289F90011124CA01822B932BBA
:101650009C6846C0EC01C11589E5D807B0F4C115F6
:1016600028E5D20728F09C2F8827806F906A38C021
:10167000C11536E5D30790F58C2F0E947B098F7139
:1016800090E0982F882790622BC0C1158AE5D80773
:1016900090F48C2F8F700E947B0994E0D695C795AB
:1016A0009A95E1F7CF70D0E0DC2FCC27D0699E016E
:1016B000282BC90115C0CE0190568115904270F4B7
:1016C0008D2F8F710E947B09282F2F71CE019927B2
:1016D0009062922B05C081E090E002C080E090E033
:1016E000DF91CF91089568EE7EEF80E090E00E9458
:1016F000F61F60E082E090E00E94D81F60E083E087
:1017000090E00E94D81F1092E80160E084E090E031
:101710000E94D81F64E082E290E00E94D81F60E03F
:1017200085E090E00E94D81F60E086E090E00E9493
:10173000D81F6FEF87E090E00E94D81F40E050E094
:10174000BA0188E090E00E94EA1F60E08DE090E03E
:101750000E94D81F40E050E0BA0188E190E00E946A
:10176000EA1F60E087E190E00E94D81F40E050E06F
:10177000BA018CE190E00E94EA1F60E070E080E234
:1017800090E00E94F61F40E050E0BA0188E190E04E
:101790000E94EA1F1092270210922802109229023A
:1017A00010922A0284E080932702409127025091F0
:1017B00028026091290270912A028FE090E00E9435
:1017C000EA1F40E050E0BA0183E190E00E94EA1F86
:1017D00008958091E70181111092E70108958095A5
:1017E0009091F30189238093F30108959091F3017F
:1017F00080917402982B90936E018091E701882369
:10180000D9F0892B80936E0180910A01882331F0F1
:101810008091810287FF02C08EE101C086E0E0E78F
:10182000F1E090E0815028F021912223D9F39F5FCD
:10183000F9CF91110E94E90B40E250E067EC71E0B2
:101840008EE691E00E949A21892B21F180E2EEE65A
:10185000F1E0A7ECB1E001900D928A95E1F7E091FB
:101860007802F09179023097A9F080910A018823DB
:1018700059F08091810287FF07C080916E018093AB
:101880006F0186E080936E010280F381E02D8EE689
:1018900091E0099508952091C60180958223809357
:1018A000C601982F977099F430E0482F082E000C4D
:1018B000550B2417350759F09091820292FF07C00B
:1018C0008595859585950E94D91C1092C60108952D
:1018D000CF93C0918202C2FB992790F9981791F09B
:1018E00080FBC2F9C09382026091810284E090E0A3
:1018F0000E94D81F6C2F82E290E00E94D81F82E0E5
:101900000E944B0CCF9108958091C5019091940154
:10191000891719F08F5F8770FBCF08950F931F937E
:10192000CF93DF938091930182958F7009F05AC015
:1019300080919001882309F455C08091C5011091D0
:10194000940160918E0170918F01C0919101D091AD
:10195000920191E06F3F09F090E0292F06E0811796
:1019600009F440C0209721F07F3F21F030E003C010
:1019700031E001C0322F90E030FD31C0089FF0010E
:10198000099FF00D1124DF01AB56BE4F11963C911B
:101990001197371324C03C91361321C012963C9105
:1019A000129731111CC013964D915C9114974C1BEA
:1019B0005D0B483C510598F4809193018F708061D4
:1019C00080939301E656FE4F80818F708061808303
:1019D0008EE891E00E9412050E94840C03C00196DB
:1019E0008770BDCFDF91CF911F910F910895A1E135
:1019F000B0E0EDEFFCE00C94181F8C0185E0F801DD
:101A0000DE011D9601900D928A95E1F7F801E280C2
:101A100090918E0160918F014091910150919201BE
:101A20004115510531F06F3F31F481E09F3F19F4CA
:101A300003C081E001C080E0F82FF1709F2E80FD8F
:101A40001BC1F80130812181C380D4808EE8A82E8B
:101A500081E0B82EF0909001F601E41BF50BFF2019
:101A600009F4C7C080919301E83CF10508F092C0E9
:101A7000482F407F09F051C0621311C093130FC06B
:101A8000FE2CE1100CC08F70806180939301C50122
:101A90000E94120580919301F80185832AC1C11427
:101AA000D10431F02F3F31F481E03F3F19F403C0FE
:101AB00081E001C080E080FD03C081E08E2502C08E
:101AC00080E090E0F82FF170FF2E80FF1CC0809125
:101AD000C5014091940156E0841709F4E8C090E0F4
:101AE000589FF001599FF00D1124EB56FE4F618174
:101AF000261306C06081631303C06281E61203C02F
:101B000001968770E9CFFE2CEE2009F4F2C0809197
:101B1000930181608093930149C0621306C09313BF
:101B200004C0E11002C0F80186C0C8010E94F71C81
:101B3000882351F1EE2041F120919301822F82956B
:101B40008F7090E0029774F080918E0190918F01D8
:101B500098878F831986DB86CA862C87CE010796E5
:101B60000E94120586E0F801AEE8B1E001900D9206
:101B70008A95E1F70E948E0C0AC06217C9F0C8016D
:101B80000E94F71C81111EC0C8010E941205FF248B
:101B9000F394AFC0482F407F81F78EE891E00E9418
:101BA000120586E0F50111928A95E9F7F12CA1C0A2
:101BB0009313E5CFE110E3CFF8018583C8010E94BC
:101BC000120554C0EE2001F320919301822F8295DB
:101BD0008F7090E0029734F280918E0190918F0186
:101BE0009A8389831B82DD82CC822E83CE0101966B
:101BF000B7CFE83CF105D0F5FE2CEE2029F26213B8
:101C000027C0931325C02091930120FD18C0822F77
:101C100082958F70482F50E04115510581F0F801F1
:101C200025834F30510541F08F5F982F9295907F1B
:101C3000822F8F70892B8583C8010E94120586E050
:101C4000F801AEE8B1E001900D928A95E1F751C03C
:101C5000C8010E94F71C811185CF8091930181609A
:101C600080939301C8010E94120543C086E0F501EC
:101C700011928A95E9F73DC0EE2009F485CFC8019D
:101C80000E94F71CF82E882309F47ECF86E0F80125
:101C9000AEE8B1E001900D928A95E1F780918E0156
:101CA00090918F010E94391C0E948E0C22C03D87AA
:101CB0002E878D859E850E94391C292F22952F7095
:101CC000223028F49F7039F0811105C00BC02430F8
:101CD00028F49F7049F4805E883020F0C8010E948B
:101CE00012059F2CF92C05C0F8019581907F99F77A
:101CF000F9CF8F2D6196EBE00C94341FA0E0B0E09B
:101D0000E4E8FEE00C941B1F8091170190911801EC
:101D1000892B91F08091E9018F5F8093E901811116
:101D20000BC00E94840390E09093180180931701E8
:101D3000892B11F40E94FB030BE212E07801D0E042
:101D4000C0E087E0C82ECC0E8C2F0E946B048C2D37
:101D50000E946B048C2F0E94CE048F73F701908138
:101D6000891721F08083DD24D39401C0D12C8C2DE0
:101D70000E94CE048F73F7019781891719F087832A
:101D800081E001C080E0D82ADD290E94BF04CF5F36
:101D9000FFEFEF1AFF0AC730A1F61092EE01C091D3
:101DA000ED01CC2309F4C4C00E94FD192091EB0180
:101DB0003091EC01AC01421B530B9A019093EC0162
:101DC0008093EB014F3F510509F018F4452B19F1B1
:101DD00002C02FEF30E01092ED011092EA01E09185
:101DE0002502F0912602AF01425F5F4F90E030E0A4
:101DF0008081882341F0281718F010829C2F03C09F
:101E0000821B80833C2F3196E417F50789F73093C6
:101E1000ED019093EA01DD2309F47BC0E0912502F6
:101E2000F09126028091EE019091ED01ACE3B2E0D9
:101E3000AF01425F5F4F6EE1E80128813C913217AC
:101E400079F0308131110CC060832C9398819227F6
:101E5000282F30E0292B81E0232B09F480E091E04A
:101E6000319611960F5F1F4FE417F50729F78093FE
:101E7000EE019093ED01C091EE012091210280913D
:101E8000F0019091F1012223C9F1892B31F42598B9
:101E90002D9826982E9827982F988091F001909150
:101EA000F1019170892B79F48091EF01882319F069
:101EB00026982E9802C0269A2E9A9091EF0181E0E2
:101EC00089278093EF018091F0019091F101813099
:101ED000984750F010922102809139020E945A03D3
:101EE0001092F1011092F0018091F0019091F101B6
:101EF00001969093F1018093F0011EC0892BE1F0CF
:101F00001092F1011092F001809139020E945A035F
:101F100013C081E09091EA01992309F4ACCF8111BB
:101F20007DCF0E94FD199093EC018093EB0176CF59
:101F3000D111F7CF80E0EECF8C2FCDB7DEB7E8E040
:101F40000C94371F8091190287FF11C08091E8001F
:101F500082FD05C0809124028111F8CF11C08091CB
:101F6000E8008B770BC080912402882349F0809190
:101F7000E80080FFF8CF8091E8008E778093E8003A
:101F80000895982F973068F59093E900981739F0E5
:101F90007091EC002091ED005091F00003C0242FCF
:101FA000762F50E021FD02C09F5FECCF3091EB0017
:101FB0003E7F3093EB003091ED003D7F3093ED009C
:101FC0003091EB0031603093EB007093EC00209384
:101FD000ED005093F0002091EE0027FDE5CF80E06A
:101FE00008958F708093E90081E0089520911F0289
:101FF000309120022617370748F06115710539F432
:102000002091E8002E772093E80001C0B901FC017F
:1020100020E06115710579F1809124028823F1F1A6
:102020008530F1F18091E80083FD3CC08091E800AB
:1020300082FD2EC08091E80080FFEBCF2091F3005D
:102040008091F20090E0922B6115710551F088307B
:10205000910538F421912093F100615071090196A6
:10206000F3CF21E0089709F020E08091E8008E7717
:102070008093E800CECF2111CFCF0AC080912402F7
:10208000882361F0853061F08091E80083FD0AC00B
:102090008091E80082FFF2CF80E0089582E0089509
:1020A00083E0089581E008950895BC0184E00E94D2
:1020B0009D190895BC0183E00E949D190895AAE22C
:1020C000B0E0E5E6F0E10C94201FE9E1F2E081E206
:1020D00092E02091F10021938E179F07D1F7809114
:1020E0001A02833009F463C030F4813071F0823019
:1020F00009F49FC0B6C08A3009F48BC08B3009F454
:102100006EC0893009F0ADC020C080911902813ABB
:1021100009F0A7C08091E800877F8093E800809154
:102120001D0290911E02892B21F460E286EF91E05E
:1021300003C060E080E090E070E00E94F60F8091C4
:10214000E8008B778093E8008CC08091190281327F
:1021500009F087C080911D0290911E02009719F02E
:10216000039709F07EC08091E800877F8093E800A4
:102170008091E80082FD05C0809124028111F8CF92
:1021800070C02091F3008091F20090E0922B0297B2
:1021900031F48091F100813011F0863021F480918A
:1021A000F1008093F5018091E8008B7756C0809113
:1021B0001902813A09F055C080911D0290911E02CA
:1021C000892B09F04EC08091E800877F8093E8005A
:1021D0008091E80080FFFCCF80910A0139C0809196
:1021E00019028132F1F580911D0290911E02892B16
:1021F000C1F58091E800877F8093E8000E94A20FDC
:1022000080911B0280930A011092F3010E942E1DFF
:1022100028C080911902813221F58091E800877FE2
:102220008093E8000E94A20F80911C028093F40129
:1022300018C080911902813AA1F48091E800877F4B
:102240008093E8008091E80080FFFCCF8091F4014A
:102250008093F1008091E8008E778093E8000E94DF
:10226000A20F8091E80083FFE4C180911902909150
:102270001A02492F50E04A30510508F0DAC1FA013C
:10228000E059FF4F0C947320803821F0823809F018
:10229000D0C108C08091160290911702992389F04D
:1022A00082600FC080911D028F70873008F0C1C11D
:1022B0008093E9008091EB0085FB882780F91092DC
:1022C000E9009091E800977F9093E8008093F100F7
:1022D0001092F10070C1282F2D7F09F0AAC1882328
:1022E00019F0823061F0A5C180911B02813009F0A4
:1022F000A0C1933009F080E0809317022EC0809136
:102300001B0281112AC080911D028F702FEF280FB0
:10231000263008F08EC18093E9002091EB0020FF69
:102320001CC0933021F48091EB00806214C0909126
:10233000EB0090619093EB0021E030E0A90102C036
:10234000440F551F8A95E2F74093EA001092EA0085
:102350008091EB0088608093EB001092E9008091FF
:10236000E800877F8093E8000E94A20F62C181117C
:1023700060C110911B021F778091E3008078812B50
:102380008093E3008091E800877F8093E8000E94BB
:10239000A20F8091E80080FFFCCF8091E30080686D
:1023A0008093E300111102C082E001C083E08093BA
:1023B00024023FC18058823008F03BC120911B02AB
:1023C00030911C022C3D53E0350779F583E08A8378
:1023D0008AE289834FB7F894DE01139620E03EE04D
:1023E00051E2E32FF0E050935700E49120FF03C047
:1023F000E295EF703F5FEF708E2F90E0EA3010F0C3
:10240000C79601C0C0968D939D932F5F243149F7E5
:102410004FBF8091E800877F8093E8006AE270E018
:10242000CE0101960E94F60FB4C080911D029091DA
:102430001E02432F552743305105A9F068F441305F
:10244000510509F405C14230510509F0F2C084E795
:1024500090E0E4E1F4E04BC04132510529F1423211
:10246000510589F1E6C0C901992781309105A1F094
:1024700058F0029709F0DDC0EAE9F4E0E4918E2F0C
:1024800090E0EAE9F4E030C0ECEDF4E0E4918E2F66
:1024900090E0ECEDF4E028C0E2EBF4E0E4918E2F64
:1024A00090E0E2EBF4E020C08430910508F0C1C078
:1024B000880F991FFC01EA5AFE4F0190F081E02D30
:1024C00089E090E014C08430910508F0B2C0FC01AE
:1024D000EE0FFF1FE25BFE4F0190F081E02DDC016B
:1024E000A65BBE4F8C9190E0009709F4A2C02091AA
:1024F000E800277F2093E80020911F0230912002FE
:102500002817390708F4C90140E0009789F12091A4
:102510002402222309F43DC02530D9F12091E8009E
:1025200023FD37C02091E80022FD2FC02091E80054
:1025300020FFEBCF4091F3002091F20030E0342BEC
:10254000009759F02830310540F444914093F10050
:10255000319601972F5F3F4FF3CF41E0283031058F
:1025600009F040E02091E8002E772093E800CDCFDD
:102570004111CDCF0AC080912402882351F08530CB
:1025800041F08091E80083FD04C08091E80082FF63
:10259000F2CF8091E8008B778093E8004AC08038C2
:1025A00009F047C08091E800877F8093E800809120
:1025B00018028093F1008091E8008E77D3CE8111CC
:1025C00038C080911B0290911C02992702978CF5CC
:1025D0008091E800877F8093E80010911B021093A0
:1025E00018020E94A20F111106C08091E30087FD1E
:1025F00002C081E001C084E08093240242E061ECEB
:1026000081E00E94C10F42E061EC82E00E94C10FB4
:1026100042E261EC85E00E94C10F42E261EC83E09E
:102620000E94C10F42E260EC84E00E94C10F8091E1
:1026300024028091E80083FF10C08091E800877F2A
:102640008093E8008091EB0080628093EB0005C0EE
:1026500082E190E0E8E8F4E04ACFAA96E3E00C9447
:102660003C1F1F920F920FB60F9211242F933F938E
:102670004F935F936F937F938F939F93AF93BF938A
:10268000CF93DF93EF93FF93C091E900CF708091D8
:10269000EC00D82FD17080FDD0E81092E900809135
:1026A000F000877F8093F00078940E945F10109272
:1026B000E9008091F00088608093F000CD2BCF700E
:1026C000C093E900FF91EF91DF91CF91BF91AF915E
:1026D0009F918F917F916F915F914F913F912F913A
:1026E0000F900FBE0F901F901895E8EDF0E08081DD
:1026F0008E7F80831092E2001092DA001092E10047
:10270000A0EEB0E08C9181608C9380818F77808384
:1027100019BCA7EDB0E08C918E7F8C9380818F7E69
:1027200080831092F2010895A0E0B0E0EAE9F3E1BD
:102730000C941B1FC8EDD0E088818F7E8883E7ED65
:10274000F0E080818160808384E082BF81E08093BB
:10275000F20188818E7F888302EE10E0F8011082FA
:102760001092DA0081EEC82ED12CF60110828881F9
:102770008F77888388818068888388818F7D88832C
:1027800019BC109224021092180210921702109293
:10279000160290EEE92EF12CF70180818B7F808369
:1027A00088818160888342E060E080E00E94C10F00
:1027B000F60180818E7F8083F80180818160808333
:1027C000808188608083F70180818E7F808388810B
:1027D00080618883CDB7DEB7E8E00C94371F1F9285
:1027E0000F920FB60F9211242F933F934F935F9345
:1027F0006F937F938F939F93AF93BF93EF93FF93C9
:102800008091E10082FF09C08091E20082FF05C053
:102810008091E1008B7F8093E1008091DA0080FF5E
:102820002AC08091D80080FF26C08091DA008E7F78
:102830008093DA008091D90080FF18C080E189BDC3
:1028400082E189BD09B400FEFDCF81E080932402BE
:102850008091F20181110FC00E9475130E949413A0
:102860008091E20084608093E20005C019BC109260
:1028700024021092F2018091E10080FF17C0809144
:10288000E20080FF13C08091E2008E7F8093E2001F
:102890008091E20080618093E2008091D8008062A4
:1028A0008093D80019BC85E0809324028091E100D8
:1028B00084FF30C08091E20084FF2CC080E189BD9C
:1028C00082E189BD09B400FEFDCF8091D8008F7DE3
:1028D0008093D8008091E1008F7E8093E100809109
:1028E000E2008F7E8093E2008091E200816080931D
:1028F000E20080911802882311F084E007C08091E3
:10290000E30087FD02C081E001C083E080932402E0
:10291000809124028091E10083FF27C08091E20032
:1029200083FF23C08091E100877F8093E10082E0F4
:1029300080932402109218028091E1008E7F809390
:10294000E1008091E2008E7F8093E2008091E200BE
:1029500080618093E20042E060E080E00E94C10F6D
:102960008091F00088608093F000FF91EF91BF911B
:10297000AF919F918F917F916F915F914F913F9117
:102980002F910F900FBE0F901F9018952091E4008B
:102990003091E50095E64091EC00842F817040FF76
:1029A00023C08091E80080FD1DC08091240288230F
:1029B00099F0853099F08091EB0085FD11C0409130
:1029C000E4005091E5002417350729F3915011F0E8
:1029D0009A01E1CF84E0089582E0089583E00895AC
:1029E00081E0089580E008954091E80042FFDDCF46
:1029F0000895EF92FF920F931F93CF93DF937C0183
:102A00008B010E94C614811119C0E701011511053F
:102A1000A1F08091E80085FD0AC08091E8008E77E2
:102A20008093E8000E94C614882381F307C089912F
:102A30008093F10001501109E9CF80E0CDB7DEB7F6
:102A4000E6E00C94391FCF9320912402243029F51D
:102A5000C091E900CF703091EC00232F217030FD40
:102A600020E8C22B23E02093E9002091E80020FF1A
:102A700011C040E050E060E270E00E94F914882349
:102A800021F010922102109222028091E8008E77AC
:102A90008093E800CF70C093E900CF910895ACE532
:102AA000B0E0E5E5F5E10C94141F85B7806885BFBB
:102AB00085B7806885BF84B7877F84BF0FB6F894D9
:102AC000A8958091600088618093600010926000FA
:102AD0000FBE90E080E80FB6F89480936100909369
:102AE00061000FBE89E799E090936B0180936A01C2
:102AF0000E9475130E9494138091E2008460809379
:102B0000E2007894809124028823A1F01091E900DA
:102B10001F709091EC00892F817090FD80E8182B38
:102B20001092E9008091E80083FD0E945F101F7001
:102B30001093E90082E084BD93E095BD9AEF97BDC4
:102B400080936E000E94840390E09093180180931C
:102B500017010E94BF040E940505EBE2F2E0ACE31E
:102B6000B2E011921D9222E0E933F207D1F78EE034
:102B700090E00E9479208093250290932602FC0128
:102B80000E961192E817F907E1F789EA8093800021
:102B900089E08093810024982C983F988AB18F7C9B
:102BA0008AB96E98479A8BB180638BB9769A8FE019
:102BB00090E00E94BC1F60932702709328028093CC
:102BC000290290932A0267703FEF639FB00111249E
:102BD00075956795759567957727709389006093CC
:102BE000880070938B0060938A0070938D006093CF
:102BF0008C000E94FB0380E090E00E94C21F883E90
:102C00009E4F11F00E94730B82E090E00E94B41F6F
:102C100080934A0284E090E00E94B41F182F82E261
:102C200090E00E94B41F212F30E0382B30938202B5
:102C30002093810283E090E00E94B41F0E94F21C66
:102C4000809139020E945A038BE091E090937902BF
:102C50008093780258E1652E712C6AE4E62E62E0DA
:102C6000F62E80912402853009F055C040E4D42E20
:102C700000E112E180912402853009F046C0809184
:102C80002402843009F110927C020FB6F894A895C2
:102C9000609260000FBED092600083B7817F846035
:102CA00083BF83B7816083BF7894889583B78E7F15
:102CB00083BF0FB6F894A8958091600088618093D7
:102CC0006000109260000FBE80911702882391F27D
:102CD0000E94840390E090931801809317010E9452
:102CE000BF040E940505ECE3F2E0119282E0EA34B1
:102CF000F807D9F70E947E0EECE3F2E08191811192
:102D000098C2EE16FF06D1F7B5CF1092F3010E94DC
:102D10002E1D0E94861A0E947E0E3BE4C32E32E0D6
:102D2000D32EACE3B2E0F60191918D91892792E028
:102D3000E935F90719F08823B9F332C0811130C0A1
:102D40000E94FD198C0180913A0290913B02081774
:102D5000190709F473C08FEF64968FAF6497659677
:102D60008FAF659766961FAE66970E94FD198160CA
:102D7000782F68969FAF8EAF689764964FAD649733
:102D800065965FAD659766966FAD669768968FADF1
:102D900068970E94A70210933B0200933A024EC02C
:102DA0002CE3A22E22E0B22E10E0F50151905F013B
:102DB000F6018080852481F100E099249394882D88
:102DC000892121F169960FAF69976A961FAF6A97BB
:102DD00091E0852D892109F490E06B969FAF6B9768
:102DE0000E94FD198160782F6D969FAF8EAF6D9711
:102DF00069964FAD69976A965FAD6A976B966FADAE
:102E00006B976D968FAD6D970E94A7020F5F990C1F
:102E10000630A9F6F60150821F5FFFEFCF1ADF0AD6
:102E20001E3009F0C2CF8FB7F89440917D025091C7
:102E30007E0260917F02709180028FBF8091750247
:102E4000882369F00E94FD192091590230915A029D
:102E5000821B930B8F3F9F4710F40E94931A85E0CB
:102E6000EFE6F2E0DE01119601900D928A95E1F70E
:102E700010927002109271021092720210927302FC
:102E80001A81111104C08B81882309F452C08091EA
:102E90006D0290916E020E94EE199C019091690260
:102EA000992309F4DEC12531310508F442C09F3F62
:102EB00019F09F5F90936902112361F00E94701BCB
:102EC000111614F491E001C09FEF899F802D112409
:102ED000809370021B81112361F00E94701B1116F8
:102EE00014F491E001C09FEF899F802D11248093FD
:102EF0007102309170023323E1F02091710222239C
:102F0000C1F045EB3403C0011124992319F09093CB
:102F1000700203C081E08093700235EB2303C0018F
:102F20001124992319F09093710203C081E08093DA
:102F300071021C81111104C08D81882309F452C0D3
:102F400080916B0290916C020E94EE199C0190910D
:102F50006802992309F489C12531310508F442C07A
:102F60009F3F19F09F5F90936802112361F00E94C8
:102F7000501B111614F491E001C09FEF899F802D22
:102F80001124809372021D81112361F00E94501B55
:102F9000111614F491E001C09FEF899F802D112438
:102FA00080937302309172023323E1F02091730217
:102FB0002223C1F045EB3403C0011124992319F0F9
:102FC0009093720203C081E08093720235EB230379
:102FD000C0011124992319F09093730203C081E07A
:102FE0008093730245E050E0BE016F5F7F4F8FE634
:102FF00092E00E949A21892BA9F48091700281119C
:103000000FC08091710281110BC0809172028111F9
:1030100007C081E090917302911103C080E001C06C
:1030200081E080FD0E94B21A85E0FE013196AFE694
:10303000B2E001900D928A95E1F70E94861A909174
:103040005B02891769F080935B028FB7F894409117
:103050007D0250917E0260917F02709180028FBF4D
:1030600080912402843009F0FCCD8093E9008091A6
:10307000E80082FFF6CD8091E80085FF22C00E9423
:10308000C61481111CC000E210E06E0141E2C40EC2
:10309000D11C08C08091F100F60181936F010150AD
:1030A000110969F08091E80085FDF4CF8091E80076
:1030B0008B778093E8000E94C614882399F391E0EF
:1030C00001C090E08091E8008B778093E80099231D
:1030D00009F4C7CDE9A18E2F90E08930910508F061
:1030E000A4C0FC01E658FF4F0C9473208BA19AA159
:1030F00090935C0280935D028DA19CA190935E02EF
:1031000080935F028FA19EA19093600280936102E1
:1031100042E150E063E270E0CE018F5B9F4F0E947E
:10312000A41F84E0898381E0809322028EEF8A834A
:10313000109221020CC019828CE0EEE5F1E0DE0174
:10314000129601900D928A95E1F78EEF8D87CE0150
:1031500001960E94231585CD02E612E086E0A82E96
:10316000B12C9EE0C92ED12C0E94941F4C010E94CC
:10317000941F9C01C401B5010E945F20F801808367
:10318000C901B6010E945F2081830E5F1F4FF2E0EC
:1031900008361F0749F781E08983909162029A837C
:1031A000909163029B83909164029C83909165024D
:1031B0009D83909166029E83909167029F839EEF0C
:1031C000988780932102CE0101960E94231542E147
:1031D00050E063E270E0CE0101960E94A41FFE0160
:1031E000319682E183301CF09189928B01C0128A62
:1031F000815031978F3FB1F742E150E063E270E0D8
:10320000CE0101960E94C81F2CCD809122028823F6
:1032100009F427CD80E00E94AF1C8AA10E94E61C21
:1032200020CD85E003C084E001C08FEF0E94A11A89
:1032300018CD09BD19BD09B400FEFDCF8091D8009D
:103240008F7D8093D8008091E00082608093E000C1
:103250008091E00081FDFCCF1092F3010E942E1DB1
:1032600009CD232B09F025CE64CE2139314008F059
:1032700079CEB8CE8091F501089522E02093E9003F
:103280002FEF3091E800215035FD06C035ED3A951D
:10329000F1F700002111F5CF2091E80025FF0BC0C8
:1032A00040E050E065E070E00E94F9148091E80091
:1032B0008E778093E8000895CF93DF9320910A01E1
:1032C000222339F02091810227FF03C060E225E02C
:1032D00002C068E021E02093E9002FEF3091E80080
:1032E000215035FD06C035ED3A95F1F7000021116A
:1032F000F5CF2091E80025FF1DC0EC0180910A0167
:10330000811105C040E050E068E070E003C070E06B
:1033100040E050E0CE010E94F9148091E8008E77E1
:103320008093E80080E2FE01A6EFB1E001900D92EB
:103330008A95E1F7DF91CF9108958093830270938E
:1033400085026093840280912402843001F585E037
:103350008093E9008FEF9091E800815095FD06C0C1
:1033600095ED9A95F1F700008111F5CF8091E80075
:1033700085FF0DC040E050E063E070E083E892E03C
:103380000E94F9148091E8008E778093E8000895F8
:1033900078941F920F920FB60F9211248F939F93E0
:1033A000AF93BF9380917D0290917E02A0917F02A6
:1033B000B09180020196A11DB11D80937D02909372
:1033C0007E02A0937F02B0938002BF91AF919F9144
:1033D0008F910F900FBE0F901F9018959C014FB7C3
:1033E000F89480917D0290917E02A0917F02B0912D
:1033F00080024FBF821B930B08952FB7F8948091E2
:103400007D0290917E02A0917F02B09180022FBF39
:1034100008951F920F920FB60F9211248F939F93CE
:10342000AF93BF9380917C02811113C080917D0284
:1034300090917E02A0917F02B09180024196A11DE1
:10344000B11D80937D0290937E02A0937F02B09382
:103450008002BF91AF919F918F910F900FBE0F90FF
:103460001F90189520910A012223C9F02091810212
:1034700027FF15C0262F2695269526952E31C8F4B0
:10348000FC01E20FF11D677081E090E001C0880F40
:103490006A95EAF780959281892382830895FC01D9
:1034A00006962281621301C012823196E817F9074D
:1034B000C1F7089520917A0230917B0228173907CD
:1034C00071F090937B0280937A02E0917802F09100
:1034D0007902309721F00084F185E02D0995089557
:1034E00020917602309177022817390771F0909376
:1034F000770280937602E0917802F091790230971A
:1035000021F00680F781E02D09950895E091780279
:10351000F0917902309729F00190F081E02D099522
:10352000089580E0089580917502882349F0809184
:1035300074028D7D809374020E94F60B10927502C6
:103540000895A0E2B0E0E7EAFAE10C94211F9FEFB2
:1035500099838A83CE0101960E942315A096E2E00A
:103560000C943D1F0E94FD1920917002211104C08E
:1035700020917102222321F090936E0280936D02BC
:1035800020917202211104C020917302222321F0A4
:1035900090936C0280936B02E0917802F091790233
:1035A000309731F00480F581E02D8FE692E00995A7
:1035B00008958D3E39F49091710297FF35C01092B5
:1035C000710259C08E3E29F4909171021916BCF314
:1035D0002BC0909170028F3E29F497FF25C0109266
:1035E000700249C0803F19F41916CCF31DC09091A8
:1035F0007202893F29F41916BCF4109272023BC082
:103600008A3F19F497FF10C0F8CF8B3F39F490919F
:10361000730297FF09C0109273022DC08C3F21F4F2
:10362000909173021916BCF39FE0980F983080F4C4
:1036300021E030E0A90102C0440F551F9A95E2F73E
:10364000CA01809590916F02892380936F0213C005
:103650008D3F21F480916A028E7F0BC08E3F21F452
:1036600080916A028D7F05C08F3F29F480916A02A4
:103670008B7F80936A0280917002811106C08091D5
:103680007102811102C0109269028091720281114F
:1036900006C080917302811102C0109268020895E1
:1036A00080916A0280FD18C081FD14C082FD16C0A1
:1036B00080916802882381F08C3380F427E0829F18
:1036C000C00111246CE370E00E945F20862F672BFD
:1036D00019F005C083E0089581E0089587E008951A
:1036E00080916A0280FD17C081FD17C082FD19C05C
:1036F00080916902882399F08C3398F428E3829FA3
:10370000C00111246CE370E00E945F20862F672BBC
:1037100049F481E008958EE008958CE1089588E0F1
:10372000089588E308958D3E21F40E94701B8195D1
:1037300004C08E3E29F40E94701B8093710208958C
:103740008F3E21F40E94701B819504C0803F29F4B4
:103750000E94701B809370020895893F19F40E94A3
:10376000501B05C08A3F31F40E94501B8195809305
:10377000720208958B3F21F40E94501B819504C072
:103780008C3F29F40E94501B8093730208959FE0A0
:10379000980F983078F421E030E0A90102C0440F7E
:1037A000551F9A95E2F7CA0190916F02892B809379
:1037B0006F0208958D3F21F480916A0281600BC0F1
:1037C0008E3F21F480916A02826005C08F3F29F408
:1037D00080916A02846080936A02089580E090E09C
:1037E0000E94701A80E090E00E945A1A10927402AF
:1037F0000E94F60BEFE6F2E085E0DF011D928A956C
:10380000E9F7109269021092680210926A020E940F
:10381000B21A0895CF92DF92FF920F931F93CF9326
:10382000DF936C01009139028091E801082BC7E019
:10383000D0E010E0C8010C2E02C0959587950A943F
:10384000E2F780FD04C02197A8F7F12C09C0FC2EF7
:10385000B6018C2F0E94BE090E94D709019799F3E7
:103860008F2DDF91CF911F910F91FF90DF90CF901F
:103870000895CF93DF93EC010E940A1CBE010E94C1
:10388000BE090E94D709DF91CF910895292F9E305C
:1038900078F5863068F590E036E0239F800D911D25
:1038A0001124682F677023E0969587952A95E1F794
:1038B000FC01EE0FFF1FE80FF91FEA57FD4F40E034
:1038C00050E080E0219130E0062E02C03695279529
:1038D0000A94E2F721703327042E01C0220F0A94C4
:1038E000EAF7822B4F5F5F4F4330510559F7089538
:1038F00080E00895292F9E3088F5863078F590E095
:1039000036E0239F800D911D1124282F277051E050
:1039100001C0550F2A95EAF723E0969587952A95D9
:10392000E1F7FC01EE0FFF1FE80FF91FEA57FD4F0B
:1039300020E030E070E04081CB01022E02C096957D
:1039400087950A94E2F781708195842785238427DF
:1039500081932F5F3F4F2330310569F70895A0E22F
:10396000B0E0E5EBFCE10C94201F0E945A03182FF5
:10397000809122028823A9F02FEF80E792E0215066
:1039800080409040E1F700C0000085E08983812FEE
:103990000E9446038A838EEF8B83CE0101960E949C
:1039A0002315109339020E94EE1BA096E3E00C94BD
:1039B0003C1F21E030E001C0220F8A95EAF72095F4
:1039C0008091390282230E94AF1C089521E030E0EB
:1039D00001C0220F8A95EAF780913902822B0E945A
:1039E000AF1C08958093E8010E94EE1B0895CF93C9
:1039F000FC018081918123813481232B31F09F3F11
:103A000031F491E08F3F19F403C091E001C090E0E0
:103A1000C92FC17090FD1CC0808191810E94391C0A
:103A200092959F70963079F010F4925001C09A50A0
:103A3000923088F4803F71F018F4883E60F40AC038
:103A4000843F49F407C0883E28F0813F21F402C03A
:103A5000C0E001C0C1E08C2FCF91089580910A0190
:103A6000882331F08091810287FF02C08EE101C07E
:103A700086E0E0E7F1E0DF011D928A95E9F70E9418
:103A8000EE1B0895882321F00E94EF0B0E94F60B95
:103A90000895882339F09091F301892B8093F301E5
:103AA0000E94F60B0895882391F19CEF980F913AAC
:103AB00030F4682F8EE691E00E94321A0DC090E239
:103AC000980F983060F4877091E001C0990F8A9543
:103AD000EAF7892F0E94EF0B0E94F60B08959BE5F1
:103AE000980F933028F480E090E00E94701A0895B7
:103AF00098E5980F973128F480E090E00E945A1AD8
:103B000008958D3E20F00E94D91A0E94B21A08959D
:103B1000CF93882309F49FC0C82F8CEF8C0F813A74
:103B200008F05BC080910A018823E1F08091810256
:103B300087FF18C0EC2FE695E695E695F0E0E25990
:103B4000FE4F8281282F30E04C2F477081E090E0BB
:103B500002C0880F991F4A95E2F782239323892B8D
:103B600059F411C0E0E7F1E08191C81729F081E034
:103B7000E637F807C9F707C06C2F8EE691E00E9480
:103B8000321A0E94F60B80910A018823B1F08091CD
:103B9000810287FF12C0EC2FE695E695E695F0E0EE
:103BA000E259FE4FC77081E090E001C0880FCA95CE
:103BB000EAF79281892B828320C0A0E7B1E0EFEF82
:103BC00080E09D91C917C9F0EF3F19F4911101C030
:103BD000E82F8F5F8630A9F735C080E28C0F8830E0
:103BE00078F4C77081E090E001C0880FCA95EAF7C9
:103BF0009091F301892B8093F3010E94F60B2BC067
:103C0000EBE5EC0FE33040F4F0E0E75EFE4F80813F
:103C100090E00E94701A1FC0E8E5EC0FE73150F405
:103C2000F0E0EE0FFF1FE45EFE4F808191810E9465
:103C30005A1A11C0CD3E78F08C2F0E94931B0E941F
:103C4000B21A09C0EF3FC9F20E2E000CFF0BE25969
:103C5000FE4FC283D2CFCF9108951092B9008CE06D
:103C60008093B8000895A0E0B0E0E9E3FEE10C9491
:103C7000181FB82EEB010E94FD196C01C431D1054B
:103C800058F0CF3F8FEFD80759F0CE0164E170E0D4
:103C90000E94FD1E7B0107C0EE24E394F12C03C0BB
:103CA00025E0E22EF12C84E8A82E94EA992E1092B9
:103CB000BC009092BC000E94FD198C018091BC0058
:103CC00087FD07C0C8010E94EE19E816F906B0F793
:103CD00029C08091B900887F883041F08091B90077
:103CE000887F803119F00FEF1FEF1EC0B092BB002C
:103CF000A092BC000E94FD198C018091BC0087FD40
:103D000007C0C8010E94EE19E816F906B0F70AC00C
:103D10008091B900887F883111F0803421F700E06C
:103D200010E00EC00EEF1FEFCF3F8FEFD80709F462
:103D3000BECFC6010E94EE19C817D90708F0B7CF49
:103D4000C801CDB7DEB7EBE00C94341F0F931F937F
:103D5000CF93DF93EB018093BB0084E88093BC009A
:103D60000E94FD198C018091BC0087FD0DC0CF3FE2
:103D70008FEFD807C1F3C8010E94EE19C817D90701
:103D800090F78EEF9FEF0CC02091B900287F81E063
:103D900090E0283211F480E090E0919581959109AE
:103DA000DF91CF911F910F9108950F931F93CF93A0
:103DB000DF93EC0184E88093BC000E94FD198C0124
:103DC0008091BC0087FD0DC0CF3F8FEFD807C1F3B6
:103DD000C8010E94EE19C817D90790F78EEF9FEF20
:103DE00003C08091BB0090E0DF91CF911F910F91B4
:103DF000089584E98093BC000895AA1BBB1B51E180
:103E000007C0AA1FBB1FA617B70710F0A61BB70B4A
:103E1000881F991F5A95A9F780959095BC01CD01EF
:103E200008952F923F924F925F926F927F928F925E
:103E30009F92AF92BF92CF92DF92EF92FF920F9339
:103E40001F93CF93DF93CDB7DEB7CA1BDB0B0FB643
:103E5000F894DEBF0FBECDBF09942A883988488800
:103E60005F846E847D848C849B84AA84B984C88496
:103E7000DF80EE80FD800C811B81AA81B981CE0F8D
:103E8000D11D0FB6F894DEBF0FBECDBFED01089572
:103E90008F929F92AF92BF92CF92DF92EF92FF925A
:103EA000CF93DF93EC01688179818A819B816115D1
:103EB00071058105910521F464E279ED8BE597E0C8
:103EC0002DE133EF41E050E00E94FC1F49015A010F
:103ED0009B01AC01A7EAB1E40E941B206B017C01AD
:103EE000ACEEB4EFA50194010E942920DC01CB01C6
:103EF0008C0D9D1DAE1DBF1DB7FF03C00197A1090D
:103F0000B04888839983AA83BB839F77DF91CF9141
:103F1000FF90EF90DF90CF90BF90AF909F908F90E9
:103F200008950E94481F089580E091E00E94481F74
:103F30000895A0E0B0E08093000190930101A09368
:103F40000201B09303010895DC01CB01FC01F99952
:103F5000FECF06C0F2BDE1BDF89A319600B40D92D5
:103F600041505040B8F70895F999FECF92BD81BDF8
:103F7000F89A992780B50895A6E1B0E044E050E0B2
:103F80000C94A61FA8E1B0E042E050E00C94A61FFC
:103F9000DC01A40FB51F4150504048F0CB01840F05
:103FA000951F2E910E94D91F41505040D0F708957F
:103FB000262FF999FECF92BD81BDF89A019700B4E2
:103FC000021639F01FBA20BD0FB6F894FA9AF99A82
:103FD0000FBE08950396272F0E94D91F0E94D81F55
:103FE000252F0E94D91F242F0C94D91F0196272F0B
:103FF0000E94D91F0C94D81F052E97FB1EF4009425
:104000000E94132057FD07D00E942E2007FC03D0EA
:104010004EF40C94132050954095309521953F4FC8
:104020004F4F5F4F089590958095709561957F4FA4
:104030008F4F9F4F08950E945020A59F900DB49FD1
:10404000900DA49F800D911D11240895B7FF0C942D
:104050001B200E941B20821B930B0895A1E21A2EA5
:10406000AA1BBB1BFD010DC0AA1FBB1FEE1FFF1F1C
:10407000A217B307E407F50720F0A21BB30BE40B6C
:10408000F50B661F771F881F991F1A9469F76095B3
:104090007095809590959B01AC01BD01CF0108956D
:1040A000A29FB001B39FC001A39F700D811D112479
:1040B000911DB29F700D811D1124911D089597FBD4
:1040C000072E16F4009407D077FD09D00E94FD1E3C
:1040D00007FC05D03EF4909581959F4F089570950B
:1040E00061957F4F0895EE0FFF1F0590F491E02D2D
:1040F00009940F931F93CF93DF938230910510F4AF
:1041000082E090E0E091A902F091AA0220E030E084
:10411000A0E0B0E0309719F1408151810281138114
:1041200048175907C8F08417950769F4109731F0BC
:1041300012960C93129713961C9327C00093A90212
:104140001093AA0222C02115310519F04217530716
:1041500018F49A01BD01EF01DF01F801DBCF211551
:104160003105F9F0281B390B2430310580F48A81A0
:104170009B816115710521F0FB019383828304C04B
:104180009093AA028093A902FE01329644C0FE01D8
:10419000E20FF31F819391932250310939832883D1
:1041A0003AC02091A7023091A802232B41F420911C
:1041B0000601309107013093A8022093A7022091B5
:1041C0000401309105012115310541F42DB73EB7A9
:1041D0004091080150910901241B350BE091A70281
:1041E000F091A802E217F307A0F42E1B3F0B28174B
:1041F000390778F0AC014E5F5F4F2417350748F060
:104200004E0F5F1F5093A8024093A7028193919392
:1042100002C0E0E0F0E0CF01DF91CF911F910F915C
:104220000895CF93DF93009709F481C0FC01329782
:1042300013821282A091A902B091AA02109781F470
:1042400020813181820F931F2091A7023091A80213
:104250002817390751F5F093A802E093A70267C029
:10426000ED0120E030E0CE17DF0740F44A815B81AA
:104270009E0141155105F1F0EA01F5CFD383C283C8
:1042800040815181840F951FC817D90759F488813F
:104290009981840F951F0296918380838A819B81E7
:1042A000938382832115310529F4F093AA02E093C8
:1042B000A9023DC0E901FB83EA8349915991C40FEA
:1042C000D51FEC17FD0761F480819181840F951F44
:1042D0000296E90199838883828193819B838A83F3
:1042E000E0E0F0E012968D919C911397009719F001
:1042F000FD01DC01F7CF8D919C9111979D012E5FFF
:104300003F4F820F931F2091A7023091A8022817D8
:10431000390769F4309729F41092AA021092A90281
:1043200002C013821282B093A802A093A702DF9169
:10433000CF910895FB01DC0104C08D91019080199B
:1043400021F441505040C8F7881B990B0895F89408
:02435000FFCF9D
:10435200010000000000AB022000013A195C193D87
:10436200195A10551054102000818283E200E9008E
:10437200EA00B500B600B700CD008301CC008A0187
:10438200920194012102230224022502260227021D
:104392002A02B300B4006F0070004022476DD403BC
:1043A200B2036B03FE0226043F045F0478046739FC
:0A43B2004564372F6A564F76340039
:00000001FF
